
rv32mi-p-soc:     file format elf32-littleriscv


Disassembly of section .text.init:

80000000 <_start>:
80000000:	aa0d                	j	80000132 <reset_vector>
80000002:	0001                	nop

80000004 <trap_vector>:
80000004:	34051073          	csrw	mscratch,a0
80000008:	00002517          	auipc	a0,0x2
8000000c:	ff850513          	addi	a0,a0,-8 # 80002000 <test_trap_data>
80000010:	01e52023          	sw	t5,0(a0)
80000014:	01f52223          	sw	t6,4(a0)
80000018:	34202f73          	csrr	t5,mcause
8000001c:	040f4163          	bltz	t5,8000005e <other_interrupts>
80000020:	4fa1                	li	t6,8
80000022:	07ff0263          	beq	t5,t6,80000086 <write_tohost>
80000026:	4fa5                	li	t6,9
80000028:	05ff0f63          	beq	t5,t6,80000086 <write_tohost>
8000002c:	4fad                	li	t6,11
8000002e:	05ff0c63          	beq	t5,t6,80000086 <write_tohost>
80000032:	4f85                	li	t6,1
80000034:	0bff0563          	beq	t5,t6,800000de <ifetch_error_handler>
80000038:	4f95                	li	t6,5
8000003a:	0dff0063          	beq	t5,t6,800000fa <load_error_handler>
8000003e:	4f9d                	li	t6,7
80000040:	0dff0b63          	beq	t5,t6,80000116 <store_error_handler>
80000044:	80000f17          	auipc	t5,0x80000
80000048:	fbcf0f13          	addi	t5,t5,-68 # 0 <_start-0x80000000>
8000004c:	000f0363          	beqz	t5,80000052 <trap_vector+0x4e>
80000050:	8f02                	jr	t5
80000052:	34202f73          	csrr	t5,mcause
80000056:	000f5363          	bgez	t5,8000005c <handle_exception>
8000005a:	a009                	j	8000005c <handle_exception>

8000005c <handle_exception>:
8000005c:	a01d                	j	80000082 <other_interrupts+0x24>

8000005e <other_interrupts>:
8000005e:	80000fb7          	lui	t6,0x80000
80000062:	003f8f93          	addi	t6,t6,3 # 80000003 <_end+0xffffdfe3>
80000066:	05ff0463          	beq	t5,t6,800000ae <sft_irq_handler>
8000006a:	80000fb7          	lui	t6,0x80000
8000006e:	007f8f93          	addi	t6,t6,7 # 80000007 <_end+0xffffdfe7>
80000072:	05ff0a63          	beq	t5,t6,800000c6 <tmr_irq_handler>
80000076:	80000fb7          	lui	t6,0x80000
8000007a:	00bf8f93          	addi	t6,t6,11 # 8000000b <_end+0xffffdfeb>
8000007e:	01ff0c63          	beq	t5,t6,80000096 <ext_irq_handler>
80000082:	5391e193          	ori	gp,gp,1337

80000086 <write_tohost>:
80000086:	4521                	li	a0,8
80000088:	30052073          	csrs	mstatus,a0
8000008c:	00001f17          	auipc	t5,0x1
80000090:	f63f2a23          	sw	gp,-140(t5) # 80001000 <tohost>
80000094:	bfcd                	j	80000086 <write_tohost>

80000096 <ext_irq_handler>:
80000096:	00002517          	auipc	a0,0x2
8000009a:	f6a50513          	addi	a0,a0,-150 # 80002000 <test_trap_data>
8000009e:	00052f03          	lw	t5,0(a0)
800000a2:	00452f83          	lw	t6,4(a0)
800000a6:	34002573          	csrr	a0,mscratch
800000aa:	30200073          	mret

800000ae <sft_irq_handler>:
800000ae:	00002517          	auipc	a0,0x2
800000b2:	f5250513          	addi	a0,a0,-174 # 80002000 <test_trap_data>
800000b6:	00052f03          	lw	t5,0(a0)
800000ba:	00452f83          	lw	t6,4(a0)
800000be:	34002573          	csrr	a0,mscratch
800000c2:	30200073          	mret

800000c6 <tmr_irq_handler>:
800000c6:	00002517          	auipc	a0,0x2
800000ca:	f3a50513          	addi	a0,a0,-198 # 80002000 <test_trap_data>
800000ce:	00052f03          	lw	t5,0(a0)
800000d2:	00452f83          	lw	t6,4(a0)
800000d6:	34002573          	csrr	a0,mscratch
800000da:	30200073          	mret

800000de <ifetch_error_handler>:
800000de:	00002517          	auipc	a0,0x2
800000e2:	f2250513          	addi	a0,a0,-222 # 80002000 <test_trap_data>
800000e6:	00052f03          	lw	t5,0(a0)
800000ea:	00452f83          	lw	t6,4(a0)
800000ee:	34302573          	csrr	a0,mbadaddr
800000f2:	34002573          	csrr	a0,mscratch
800000f6:	30200073          	mret

800000fa <load_error_handler>:
800000fa:	00002517          	auipc	a0,0x2
800000fe:	f0650513          	addi	a0,a0,-250 # 80002000 <test_trap_data>
80000102:	00052f03          	lw	t5,0(a0)
80000106:	00452f83          	lw	t6,4(a0)
8000010a:	34302573          	csrr	a0,mbadaddr
8000010e:	34002573          	csrr	a0,mscratch
80000112:	30200073          	mret

80000116 <store_error_handler>:
80000116:	00002517          	auipc	a0,0x2
8000011a:	eea50513          	addi	a0,a0,-278 # 80002000 <test_trap_data>
8000011e:	00052f03          	lw	t5,0(a0)
80000122:	00452f83          	lw	t6,4(a0)
80000126:	34302573          	csrr	a0,mbadaddr
8000012a:	34002573          	csrr	a0,mscratch
8000012e:	30200073          	mret

80000132 <reset_vector>:
80000132:	00000f13          	li	t5,0
80000136:	00000f93          	li	t6,0
8000013a:	f1402573          	csrr	a0,mhartid
8000013e:	e101                	bnez	a0,8000013e <reset_vector+0xc>
80000140:	4181                	li	gp,0
80000142:	00000297          	auipc	t0,0x0
80000146:	ec228293          	addi	t0,t0,-318 # 80000004 <trap_vector>
8000014a:	4521                	li	a0,8
8000014c:	30052073          	csrs	mstatus,a0
80000150:	fff00513          	li	a0,-1
80000154:	30452073          	csrs	mie,a0
80000158:	30529073          	csrw	mtvec,t0

8000015c <post_mtvec>:
8000015c:	80000297          	auipc	t0,0x80000
80000160:	ea428293          	addi	t0,t0,-348 # 0 <_start-0x80000000>
80000164:	00028e63          	beqz	t0,80000180 <post_mtvec+0x24>
80000168:	10529073          	csrw	stvec,t0
8000016c:	0000b2b7          	lui	t0,0xb
80000170:	10928293          	addi	t0,t0,265 # b109 <_start-0x7fff4ef7>
80000174:	30229073          	csrw	medeleg,t0
80000178:	30202373          	csrr	t1,medeleg
8000017c:	ee6290e3          	bne	t0,t1,8000005c <handle_exception>
80000180:	30005073          	csrwi	mstatus,0
80000184:	08000513          	li	a0,128
80000188:	30052073          	csrs	mstatus,a0
8000018c:	4501                	li	a0,0
8000018e:	bfc51073          	csrw	0xbfc,a0
80000192:	0000100f          	fence.i
80000196:	000012b7          	lui	t0,0x1
8000019a:	a0028293          	addi	t0,t0,-1536 # a00 <_start-0x7ffff600>

8000019e <waitloop1>:
8000019e:	12fd                	addi	t0,t0,-1
800001a0:	fe029fe3          	bnez	t0,8000019e <waitloop1>
800001a4:	100083b7          	lui	t2,0x10008
800001a8:	00838393          	addi	t2,t2,8 # 10008008 <_start-0x6fff7ff8>
800001ac:	0003a283          	lw	t0,0(t2)
800001b0:	00040337          	lui	t1,0x40
800001b4:	fff34313          	not	t1,t1
800001b8:	0062f2b3          	and	t0,t0,t1
800001bc:	0053a023          	sw	t0,0(t2)
800001c0:	40000293          	li	t0,1024

800001c4 <waitloop2>:
800001c4:	12fd                	addi	t0,t0,-1
800001c6:	0003ae03          	lw	t3,0(t2)
800001ca:	fe029de3          	bnez	t0,800001c4 <waitloop2>
800001ce:	0003a283          	lw	t0,0(t2)
800001d2:	00040337          	lui	t1,0x40
800001d6:	0062e2b3          	or	t0,t0,t1
800001da:	0053a023          	sw	t0,0(t2)
800001de:	0003a283          	lw	t0,0(t2)
800001e2:	4305                	li	t1,1
800001e4:	0062e2b3          	or	t0,t0,t1
800001e8:	0053a023          	sw	t0,0(t2)
800001ec:	0003a283          	lw	t0,0(t2)
800001f0:	02000313          	li	t1,32
800001f4:	0062e2b3          	or	t0,t0,t1
800001f8:	0053a023          	sw	t0,0(t2)
800001fc:	000012b7          	lui	t0,0x1
80000200:	a0028293          	addi	t0,t0,-1536 # a00 <_start-0x7ffff600>

80000204 <waitloop3>:
80000204:	12fd                	addi	t0,t0,-1
80000206:	fe029fe3          	bnez	t0,80000204 <waitloop3>
8000020a:	0003a283          	lw	t0,0(t2)
8000020e:	00040337          	lui	t1,0x40
80000212:	fff34313          	not	t1,t1
80000216:	0062f2b3          	and	t0,t0,t1
8000021a:	0053a023          	sw	t0,0(t2)
8000021e:	10000293          	li	t0,256

80000222 <waitloop4>:
80000222:	12fd                	addi	t0,t0,-1
80000224:	fe029fe3          	bnez	t0,80000222 <waitloop4>
80000228:	100083b7          	lui	t2,0x10008
8000022c:	00c38393          	addi	t2,t2,12 # 1000800c <_start-0x6fff7ff4>
80000230:	0003a283          	lw	t0,0(t2)
80000234:	10000313          	li	t1,256
80000238:	fff34313          	not	t1,t1
8000023c:	0062f2b3          	and	t0,t0,t1
80000240:	4309                	li	t1,2
80000242:	0062e2b3          	or	t0,t0,t1
80000246:	0053a023          	sw	t0,0(t2)
8000024a:	40000293          	li	t0,1024
8000024e:	00002537          	lui	a0,0x2
80000252:	80050513          	addi	a0,a0,-2048 # 1800 <_start-0x7fffe800>
80000256:	30052073          	csrs	mstatus,a0
8000025a:	00000297          	auipc	t0,0x0
8000025e:	01428293          	addi	t0,t0,20 # 8000026e <waitloop4+0x4c>
80000262:	34129073          	csrw	mepc,t0
80000266:	f1402573          	csrr	a0,mhartid
8000026a:	30200073          	mret
8000026e:	0ff00593          	li	a1,255
80000272:	100402b7          	lui	t0,0x10040
80000276:	00b28023          	sb	a1,0(t0) # 10040000 <_start-0x6ffc0000>
8000027a:	100402b7          	lui	t0,0x10040
8000027e:	00128293          	addi	t0,t0,1 # 10040001 <_start-0x6ffbffff>
80000282:	00b28023          	sb	a1,0(t0)
80000286:	100402b7          	lui	t0,0x10040
8000028a:	00228293          	addi	t0,t0,2 # 10040002 <_start-0x6ffbfffe>
8000028e:	00b28023          	sb	a1,0(t0)
80000292:	100402b7          	lui	t0,0x10040
80000296:	00328293          	addi	t0,t0,3 # 10040003 <_start-0x6ffbfffd>
8000029a:	00b28023          	sb	a1,0(t0)
8000029e:	100402b7          	lui	t0,0x10040
800002a2:	00428293          	addi	t0,t0,4 # 10040004 <_start-0x6ffbfffc>
800002a6:	00b28023          	sb	a1,0(t0)
800002aa:	100402b7          	lui	t0,0x10040
800002ae:	00528293          	addi	t0,t0,5 # 10040005 <_start-0x6ffbfffb>
800002b2:	00b28023          	sb	a1,0(t0)
800002b6:	100402b7          	lui	t0,0x10040
800002ba:	00628293          	addi	t0,t0,6 # 10040006 <_start-0x6ffbfffa>
800002be:	00b28023          	sb	a1,0(t0)
800002c2:	100402b7          	lui	t0,0x10040
800002c6:	00728293          	addi	t0,t0,7 # 10040007 <_start-0x6ffbfff9>
800002ca:	00b28023          	sb	a1,0(t0)
800002ce:	100402b7          	lui	t0,0x10040
800002d2:	00028583          	lb	a1,0(t0) # 10040000 <_start-0x6ffc0000>
800002d6:	100402b7          	lui	t0,0x10040
800002da:	00128293          	addi	t0,t0,1 # 10040001 <_start-0x6ffbffff>
800002de:	00028583          	lb	a1,0(t0)
800002e2:	100402b7          	lui	t0,0x10040
800002e6:	00228293          	addi	t0,t0,2 # 10040002 <_start-0x6ffbfffe>
800002ea:	00028583          	lb	a1,0(t0)
800002ee:	100402b7          	lui	t0,0x10040
800002f2:	00328293          	addi	t0,t0,3 # 10040003 <_start-0x6ffbfffd>
800002f6:	00028583          	lb	a1,0(t0)
800002fa:	100402b7          	lui	t0,0x10040
800002fe:	00428293          	addi	t0,t0,4 # 10040004 <_start-0x6ffbfffc>
80000302:	00028583          	lb	a1,0(t0)
80000306:	100402b7          	lui	t0,0x10040
8000030a:	00528293          	addi	t0,t0,5 # 10040005 <_start-0x6ffbfffb>
8000030e:	00028583          	lb	a1,0(t0)
80000312:	100402b7          	lui	t0,0x10040
80000316:	00628293          	addi	t0,t0,6 # 10040006 <_start-0x6ffbfffa>
8000031a:	00028583          	lb	a1,0(t0)
8000031e:	100402b7          	lui	t0,0x10040
80000322:	00728293          	addi	t0,t0,7 # 10040007 <_start-0x6ffbfff9>
80000326:	00028583          	lb	a1,0(t0)
8000032a:	0ff00593          	li	a1,255
8000032e:	100412b7          	lui	t0,0x10041
80000332:	00b28023          	sb	a1,0(t0) # 10041000 <_start-0x6ffbf000>
80000336:	100412b7          	lui	t0,0x10041
8000033a:	00128293          	addi	t0,t0,1 # 10041001 <_start-0x6ffbefff>
8000033e:	00b28023          	sb	a1,0(t0)
80000342:	100412b7          	lui	t0,0x10041
80000346:	00228293          	addi	t0,t0,2 # 10041002 <_start-0x6ffbeffe>
8000034a:	00b28023          	sb	a1,0(t0)
8000034e:	100412b7          	lui	t0,0x10041
80000352:	00328293          	addi	t0,t0,3 # 10041003 <_start-0x6ffbeffd>
80000356:	00b28023          	sb	a1,0(t0)
8000035a:	100412b7          	lui	t0,0x10041
8000035e:	00428293          	addi	t0,t0,4 # 10041004 <_start-0x6ffbeffc>
80000362:	00b28023          	sb	a1,0(t0)
80000366:	100412b7          	lui	t0,0x10041
8000036a:	00528293          	addi	t0,t0,5 # 10041005 <_start-0x6ffbeffb>
8000036e:	00b28023          	sb	a1,0(t0)
80000372:	100412b7          	lui	t0,0x10041
80000376:	00628293          	addi	t0,t0,6 # 10041006 <_start-0x6ffbeffa>
8000037a:	00b28023          	sb	a1,0(t0)
8000037e:	100412b7          	lui	t0,0x10041
80000382:	00728293          	addi	t0,t0,7 # 10041007 <_start-0x6ffbeff9>
80000386:	00b28023          	sb	a1,0(t0)
8000038a:	100412b7          	lui	t0,0x10041
8000038e:	00028583          	lb	a1,0(t0) # 10041000 <_start-0x6ffbf000>
80000392:	100412b7          	lui	t0,0x10041
80000396:	00128293          	addi	t0,t0,1 # 10041001 <_start-0x6ffbefff>
8000039a:	00028583          	lb	a1,0(t0)
8000039e:	100412b7          	lui	t0,0x10041
800003a2:	00228293          	addi	t0,t0,2 # 10041002 <_start-0x6ffbeffe>
800003a6:	00028583          	lb	a1,0(t0)
800003aa:	100412b7          	lui	t0,0x10041
800003ae:	00328293          	addi	t0,t0,3 # 10041003 <_start-0x6ffbeffd>
800003b2:	00028583          	lb	a1,0(t0)
800003b6:	100412b7          	lui	t0,0x10041
800003ba:	00428293          	addi	t0,t0,4 # 10041004 <_start-0x6ffbeffc>
800003be:	00028583          	lb	a1,0(t0)
800003c2:	100412b7          	lui	t0,0x10041
800003c6:	00528293          	addi	t0,t0,5 # 10041005 <_start-0x6ffbeffb>
800003ca:	00028583          	lb	a1,0(t0)
800003ce:	100412b7          	lui	t0,0x10041
800003d2:	00628293          	addi	t0,t0,6 # 10041006 <_start-0x6ffbeffa>
800003d6:	00028583          	lb	a1,0(t0)
800003da:	100412b7          	lui	t0,0x10041
800003de:	00728293          	addi	t0,t0,7 # 10041007 <_start-0x6ffbeff9>
800003e2:	00028583          	lb	a1,0(t0)
800003e6:	0ff00593          	li	a1,255
800003ea:	100422b7          	lui	t0,0x10042
800003ee:	00b28023          	sb	a1,0(t0) # 10042000 <_start-0x6ffbe000>
800003f2:	100422b7          	lui	t0,0x10042
800003f6:	00128293          	addi	t0,t0,1 # 10042001 <_start-0x6ffbdfff>
800003fa:	00b28023          	sb	a1,0(t0)
800003fe:	100422b7          	lui	t0,0x10042
80000402:	00228293          	addi	t0,t0,2 # 10042002 <_start-0x6ffbdffe>
80000406:	00b28023          	sb	a1,0(t0)
8000040a:	100422b7          	lui	t0,0x10042
8000040e:	00328293          	addi	t0,t0,3 # 10042003 <_start-0x6ffbdffd>
80000412:	00b28023          	sb	a1,0(t0)
80000416:	100422b7          	lui	t0,0x10042
8000041a:	00428293          	addi	t0,t0,4 # 10042004 <_start-0x6ffbdffc>
8000041e:	00b28023          	sb	a1,0(t0)
80000422:	100422b7          	lui	t0,0x10042
80000426:	00528293          	addi	t0,t0,5 # 10042005 <_start-0x6ffbdffb>
8000042a:	00b28023          	sb	a1,0(t0)
8000042e:	100422b7          	lui	t0,0x10042
80000432:	00628293          	addi	t0,t0,6 # 10042006 <_start-0x6ffbdffa>
80000436:	00b28023          	sb	a1,0(t0)
8000043a:	100422b7          	lui	t0,0x10042
8000043e:	00728293          	addi	t0,t0,7 # 10042007 <_start-0x6ffbdff9>
80000442:	00b28023          	sb	a1,0(t0)
80000446:	100422b7          	lui	t0,0x10042
8000044a:	00028583          	lb	a1,0(t0) # 10042000 <_start-0x6ffbe000>
8000044e:	100422b7          	lui	t0,0x10042
80000452:	00128293          	addi	t0,t0,1 # 10042001 <_start-0x6ffbdfff>
80000456:	00028583          	lb	a1,0(t0)
8000045a:	100422b7          	lui	t0,0x10042
8000045e:	00228293          	addi	t0,t0,2 # 10042002 <_start-0x6ffbdffe>
80000462:	00028583          	lb	a1,0(t0)
80000466:	100422b7          	lui	t0,0x10042
8000046a:	00328293          	addi	t0,t0,3 # 10042003 <_start-0x6ffbdffd>
8000046e:	00028583          	lb	a1,0(t0)
80000472:	100422b7          	lui	t0,0x10042
80000476:	00428293          	addi	t0,t0,4 # 10042004 <_start-0x6ffbdffc>
8000047a:	00028583          	lb	a1,0(t0)
8000047e:	100422b7          	lui	t0,0x10042
80000482:	00528293          	addi	t0,t0,5 # 10042005 <_start-0x6ffbdffb>
80000486:	00028583          	lb	a1,0(t0)
8000048a:	100422b7          	lui	t0,0x10042
8000048e:	00628293          	addi	t0,t0,6 # 10042006 <_start-0x6ffbdffa>
80000492:	00028583          	lb	a1,0(t0)
80000496:	100422b7          	lui	t0,0x10042
8000049a:	00728293          	addi	t0,t0,7 # 10042007 <_start-0x6ffbdff9>
8000049e:	00028583          	lb	a1,0(t0)
800004a2:	100424b7          	lui	s1,0x10042
800004a6:	0aa00993          	li	s3,170
800004aa:	0024c583          	lbu	a1,2(s1) # 10042002 <_start-0x6ffbdffe>
800004ae:	0044c583          	lbu	a1,4(s1)
800004b2:	02700793          	li	a5,39
800004b6:	00f48023          	sb	a5,0(s1)
800004ba:	0004c583          	lbu	a1,0(s1)
800004be:	28f59be3          	bne	a1,a5,80000f54 <waitloop4+0xd32>
800004c2:	4785                	li	a5,1
800004c4:	00f480a3          	sb	a5,1(s1)
800004c8:	0014c583          	lbu	a1,1(s1)
800004cc:	28f594e3          	bne	a1,a5,80000f54 <waitloop4+0xd32>
800004d0:	08000793          	li	a5,128
800004d4:	00f48123          	sb	a5,2(s1)
800004d8:	0024c583          	lbu	a1,2(s1)
800004dc:	26f59ce3          	bne	a1,a5,80000f54 <waitloop4+0xd32>
800004e0:	013481a3          	sb	s3,3(s1)
800004e4:	0034c583          	lbu	a1,3(s1)
800004e8:	0ff00793          	li	a5,255
800004ec:	26f594e3          	bne	a1,a5,80000f54 <waitloop4+0xd32>
800004f0:	0044c583          	lbu	a1,4(s1)
800004f4:	f9000793          	li	a5,-112
800004f8:	00f48223          	sb	a5,4(s1)
800004fc:	0044c583          	lbu	a1,4(s1)
80000500:	4789                	li	a5,2
80000502:	24f599e3          	bne	a1,a5,80000f54 <waitloop4+0xd32>
80000506:	013481a3          	sb	s3,3(s1)
8000050a:	0034c583          	lbu	a1,3(s1)
8000050e:	05000793          	li	a5,80
80000512:	00f48223          	sb	a5,4(s1)
80000516:	0044c583          	lbu	a1,4(s1)
8000051a:	100002b7          	lui	t0,0x10000
8000051e:	01c28293          	addi	t0,t0,28 # 1000001c <_start-0x6fffffe4>
80000522:	00b2a023          	sw	a1,0(t0)
80000526:	0002a603          	lw	a2,0(t0)
8000052a:	fff00593          	li	a1,-1
8000052e:	100002b7          	lui	t0,0x10000
80000532:	00b2a023          	sw	a1,0(t0) # 10000000 <_start-0x70000000>
80000536:	0002a603          	lw	a2,0(t0)
8000053a:	100002b7          	lui	t0,0x10000
8000053e:	00828293          	addi	t0,t0,8 # 10000008 <_start-0x6ffffff8>
80000542:	00b2a023          	sw	a1,0(t0)
80000546:	0002a603          	lw	a2,0(t0)
8000054a:	100002b7          	lui	t0,0x10000
8000054e:	01028293          	addi	t0,t0,16 # 10000010 <_start-0x6ffffff0>
80000552:	00b2a023          	sw	a1,0(t0)
80000556:	0002a603          	lw	a2,0(t0)
8000055a:	100002b7          	lui	t0,0x10000
8000055e:	01828293          	addi	t0,t0,24 # 10000018 <_start-0x6fffffe8>
80000562:	00b2a023          	sw	a1,0(t0)
80000566:	0002a603          	lw	a2,0(t0)
8000056a:	100002b7          	lui	t0,0x10000
8000056e:	02028293          	addi	t0,t0,32 # 10000020 <_start-0x6fffffe0>
80000572:	00b2a023          	sw	a1,0(t0)
80000576:	0002a603          	lw	a2,0(t0)
8000057a:	100002b7          	lui	t0,0x10000
8000057e:	04028293          	addi	t0,t0,64 # 10000040 <_start-0x6fffffc0>
80000582:	00b2a023          	sw	a1,0(t0)
80000586:	0002a603          	lw	a2,0(t0)
8000058a:	100002b7          	lui	t0,0x10000
8000058e:	04828293          	addi	t0,t0,72 # 10000048 <_start-0x6fffffb8>
80000592:	00b2a023          	sw	a1,0(t0)
80000596:	0002a603          	lw	a2,0(t0)
8000059a:	100002b7          	lui	t0,0x10000
8000059e:	04c28293          	addi	t0,t0,76 # 1000004c <_start-0x6fffffb4>
800005a2:	00b2a023          	sw	a1,0(t0)
800005a6:	0002a603          	lw	a2,0(t0)
800005aa:	100002b7          	lui	t0,0x10000
800005ae:	05028293          	addi	t0,t0,80 # 10000050 <_start-0x6fffffb0>
800005b2:	00b2a023          	sw	a1,0(t0)
800005b6:	0002a603          	lw	a2,0(t0)
800005ba:	100002b7          	lui	t0,0x10000
800005be:	06028293          	addi	t0,t0,96 # 10000060 <_start-0x6fffffa0>
800005c2:	00b2a023          	sw	a1,0(t0)
800005c6:	0002a603          	lw	a2,0(t0)
800005ca:	100002b7          	lui	t0,0x10000
800005ce:	08028293          	addi	t0,t0,128 # 10000080 <_start-0x6fffff80>
800005d2:	00b2a023          	sw	a1,0(t0)
800005d6:	0002a603          	lw	a2,0(t0)
800005da:	100002b7          	lui	t0,0x10000
800005de:	08428293          	addi	t0,t0,132 # 10000084 <_start-0x6fffff7c>
800005e2:	00b2a023          	sw	a1,0(t0)
800005e6:	0002a603          	lw	a2,0(t0)
800005ea:	100002b7          	lui	t0,0x10000
800005ee:	08828293          	addi	t0,t0,136 # 10000088 <_start-0x6fffff78>
800005f2:	00b2a023          	sw	a1,0(t0)
800005f6:	0002a603          	lw	a2,0(t0)
800005fa:	100002b7          	lui	t0,0x10000
800005fe:	08c28293          	addi	t0,t0,140 # 1000008c <_start-0x6fffff74>
80000602:	00b2a023          	sw	a1,0(t0)
80000606:	0002a603          	lw	a2,0(t0)
8000060a:	100002b7          	lui	t0,0x10000
8000060e:	09028293          	addi	t0,t0,144 # 10000090 <_start-0x6fffff70>
80000612:	00b2a023          	sw	a1,0(t0)
80000616:	0002a603          	lw	a2,0(t0)
8000061a:	100002b7          	lui	t0,0x10000
8000061e:	09428293          	addi	t0,t0,148 # 10000094 <_start-0x6fffff6c>
80000622:	00b2a023          	sw	a1,0(t0)
80000626:	0002a603          	lw	a2,0(t0)
8000062a:	100002b7          	lui	t0,0x10000
8000062e:	09828293          	addi	t0,t0,152 # 10000098 <_start-0x6fffff68>
80000632:	00b2a023          	sw	a1,0(t0)
80000636:	0002a603          	lw	a2,0(t0)
8000063a:	100002b7          	lui	t0,0x10000
8000063e:	09c28293          	addi	t0,t0,156 # 1000009c <_start-0x6fffff64>
80000642:	00b2a023          	sw	a1,0(t0)
80000646:	0002a603          	lw	a2,0(t0)
8000064a:	100002b7          	lui	t0,0x10000
8000064e:	0a028293          	addi	t0,t0,160 # 100000a0 <_start-0x6fffff60>
80000652:	00b2a023          	sw	a1,0(t0)
80000656:	0002a603          	lw	a2,0(t0)
8000065a:	100002b7          	lui	t0,0x10000
8000065e:	0a428293          	addi	t0,t0,164 # 100000a4 <_start-0x6fffff5c>
80000662:	00b2a023          	sw	a1,0(t0)
80000666:	0002a603          	lw	a2,0(t0)
8000066a:	100002b7          	lui	t0,0x10000
8000066e:	0a828293          	addi	t0,t0,168 # 100000a8 <_start-0x6fffff58>
80000672:	00b2a023          	sw	a1,0(t0)
80000676:	0002a603          	lw	a2,0(t0)
8000067a:	100002b7          	lui	t0,0x10000
8000067e:	0ac28293          	addi	t0,t0,172 # 100000ac <_start-0x6fffff54>
80000682:	00b2a023          	sw	a1,0(t0)
80000686:	0002a603          	lw	a2,0(t0)
8000068a:	100002b7          	lui	t0,0x10000
8000068e:	0b028293          	addi	t0,t0,176 # 100000b0 <_start-0x6fffff50>
80000692:	00b2a023          	sw	a1,0(t0)
80000696:	0002a603          	lw	a2,0(t0)
8000069a:	100002b7          	lui	t0,0x10000
8000069e:	0b428293          	addi	t0,t0,180 # 100000b4 <_start-0x6fffff4c>
800006a2:	00b2a023          	sw	a1,0(t0)
800006a6:	0002a603          	lw	a2,0(t0)
800006aa:	100002b7          	lui	t0,0x10000
800006ae:	0b828293          	addi	t0,t0,184 # 100000b8 <_start-0x6fffff48>
800006b2:	00b2a023          	sw	a1,0(t0)
800006b6:	0002a603          	lw	a2,0(t0)
800006ba:	100002b7          	lui	t0,0x10000
800006be:	0bc28293          	addi	t0,t0,188 # 100000bc <_start-0x6fffff44>
800006c2:	00b2a023          	sw	a1,0(t0)
800006c6:	0002a603          	lw	a2,0(t0)
800006ca:	100002b7          	lui	t0,0x10000
800006ce:	10028293          	addi	t0,t0,256 # 10000100 <_start-0x6fffff00>
800006d2:	00b2a023          	sw	a1,0(t0)
800006d6:	0002a603          	lw	a2,0(t0)
800006da:	100002b7          	lui	t0,0x10000
800006de:	10428293          	addi	t0,t0,260 # 10000104 <_start-0x6ffffefc>
800006e2:	00b2a023          	sw	a1,0(t0)
800006e6:	0002a603          	lw	a2,0(t0)
800006ea:	100002b7          	lui	t0,0x10000
800006ee:	10828293          	addi	t0,t0,264 # 10000108 <_start-0x6ffffef8>
800006f2:	00b2a023          	sw	a1,0(t0)
800006f6:	0002a603          	lw	a2,0(t0)
800006fa:	100002b7          	lui	t0,0x10000
800006fe:	10c28293          	addi	t0,t0,268 # 1000010c <_start-0x6ffffef4>
80000702:	00b2a023          	sw	a1,0(t0)
80000706:	0002a603          	lw	a2,0(t0)
8000070a:	100002b7          	lui	t0,0x10000
8000070e:	11028293          	addi	t0,t0,272 # 10000110 <_start-0x6ffffef0>
80000712:	00b2a023          	sw	a1,0(t0)
80000716:	0002a603          	lw	a2,0(t0)
8000071a:	100002b7          	lui	t0,0x10000
8000071e:	11428293          	addi	t0,t0,276 # 10000114 <_start-0x6ffffeec>
80000722:	00b2a023          	sw	a1,0(t0)
80000726:	0002a603          	lw	a2,0(t0)
8000072a:	100002b7          	lui	t0,0x10000
8000072e:	11828293          	addi	t0,t0,280 # 10000118 <_start-0x6ffffee8>
80000732:	00b2a023          	sw	a1,0(t0)
80000736:	0002a603          	lw	a2,0(t0)
8000073a:	100002b7          	lui	t0,0x10000
8000073e:	11c28293          	addi	t0,t0,284 # 1000011c <_start-0x6ffffee4>
80000742:	00b2a023          	sw	a1,0(t0)
80000746:	0002a603          	lw	a2,0(t0)
8000074a:	100002b7          	lui	t0,0x10000
8000074e:	12028293          	addi	t0,t0,288 # 10000120 <_start-0x6ffffee0>
80000752:	00b2a023          	sw	a1,0(t0)
80000756:	0002a603          	lw	a2,0(t0)
8000075a:	100002b7          	lui	t0,0x10000
8000075e:	12428293          	addi	t0,t0,292 # 10000124 <_start-0x6ffffedc>
80000762:	00b2a023          	sw	a1,0(t0)
80000766:	0002a603          	lw	a2,0(t0)
8000076a:	100002b7          	lui	t0,0x10000
8000076e:	12828293          	addi	t0,t0,296 # 10000128 <_start-0x6ffffed8>
80000772:	00b2a023          	sw	a1,0(t0)
80000776:	0002a603          	lw	a2,0(t0)
8000077a:	100002b7          	lui	t0,0x10000
8000077e:	12c28293          	addi	t0,t0,300 # 1000012c <_start-0x6ffffed4>
80000782:	00b2a023          	sw	a1,0(t0)
80000786:	0002a603          	lw	a2,0(t0)
8000078a:	100002b7          	lui	t0,0x10000
8000078e:	13028293          	addi	t0,t0,304 # 10000130 <_start-0x6ffffed0>
80000792:	00b2a023          	sw	a1,0(t0)
80000796:	0002a603          	lw	a2,0(t0)
8000079a:	100002b7          	lui	t0,0x10000
8000079e:	13428293          	addi	t0,t0,308 # 10000134 <_start-0x6ffffecc>
800007a2:	00b2a023          	sw	a1,0(t0)
800007a6:	0002a603          	lw	a2,0(t0)
800007aa:	100002b7          	lui	t0,0x10000
800007ae:	13828293          	addi	t0,t0,312 # 10000138 <_start-0x6ffffec8>
800007b2:	00b2a023          	sw	a1,0(t0)
800007b6:	0002a603          	lw	a2,0(t0)
800007ba:	100002b7          	lui	t0,0x10000
800007be:	13c28293          	addi	t0,t0,316 # 1000013c <_start-0x6ffffec4>
800007c2:	00b2a023          	sw	a1,0(t0)
800007c6:	0002a603          	lw	a2,0(t0)
800007ca:	100002b7          	lui	t0,0x10000
800007ce:	14028293          	addi	t0,t0,320 # 10000140 <_start-0x6ffffec0>
800007d2:	00b2a023          	sw	a1,0(t0)
800007d6:	0002a603          	lw	a2,0(t0)
800007da:	100002b7          	lui	t0,0x10000
800007de:	14428293          	addi	t0,t0,324 # 10000144 <_start-0x6ffffebc>
800007e2:	00b2a023          	sw	a1,0(t0)
800007e6:	0002a603          	lw	a2,0(t0)
800007ea:	100002b7          	lui	t0,0x10000
800007ee:	14828293          	addi	t0,t0,328 # 10000148 <_start-0x6ffffeb8>
800007f2:	00b2a023          	sw	a1,0(t0)
800007f6:	0002a603          	lw	a2,0(t0)
800007fa:	100002b7          	lui	t0,0x10000
800007fe:	14c28293          	addi	t0,t0,332 # 1000014c <_start-0x6ffffeb4>
80000802:	00b2a023          	sw	a1,0(t0)
80000806:	0002a603          	lw	a2,0(t0)
8000080a:	100002b7          	lui	t0,0x10000
8000080e:	20028293          	addi	t0,t0,512 # 10000200 <_start-0x6ffffe00>
80000812:	00b2a023          	sw	a1,0(t0)
80000816:	0002a603          	lw	a2,0(t0)
8000081a:	100082b7          	lui	t0,0x10008
8000081e:	00428293          	addi	t0,t0,4 # 10008004 <_start-0x6fff7ffc>
80000822:	00b2a023          	sw	a1,0(t0)
80000826:	0002a603          	lw	a2,0(t0)
8000082a:	100082b7          	lui	t0,0x10008
8000082e:	00828293          	addi	t0,t0,8 # 10008008 <_start-0x6fff7ff8>
80000832:	0002a603          	lw	a2,0(t0)
80000836:	100082b7          	lui	t0,0x10008
8000083a:	00c28293          	addi	t0,t0,12 # 1000800c <_start-0x6fff7ff4>
8000083e:	00b2a023          	sw	a1,0(t0)
80000842:	0002a603          	lw	a2,0(t0)
80000846:	100122b7          	lui	t0,0x10012
8000084a:	00b2a023          	sw	a1,0(t0) # 10012000 <_start-0x6ffee000>
8000084e:	0002a603          	lw	a2,0(t0)
80000852:	100122b7          	lui	t0,0x10012
80000856:	00428293          	addi	t0,t0,4 # 10012004 <_start-0x6ffedffc>
8000085a:	00b2a023          	sw	a1,0(t0)
8000085e:	0002a603          	lw	a2,0(t0)
80000862:	100122b7          	lui	t0,0x10012
80000866:	00828293          	addi	t0,t0,8 # 10012008 <_start-0x6ffedff8>
8000086a:	00b2a023          	sw	a1,0(t0)
8000086e:	0002a603          	lw	a2,0(t0)
80000872:	100122b7          	lui	t0,0x10012
80000876:	00c28293          	addi	t0,t0,12 # 1001200c <_start-0x6ffedff4>
8000087a:	00b2a023          	sw	a1,0(t0)
8000087e:	0002a603          	lw	a2,0(t0)
80000882:	100122b7          	lui	t0,0x10012
80000886:	01028293          	addi	t0,t0,16 # 10012010 <_start-0x6ffedff0>
8000088a:	00b2a023          	sw	a1,0(t0)
8000088e:	0002a603          	lw	a2,0(t0)
80000892:	100122b7          	lui	t0,0x10012
80000896:	01428293          	addi	t0,t0,20 # 10012014 <_start-0x6ffedfec>
8000089a:	00b2a023          	sw	a1,0(t0)
8000089e:	0002a603          	lw	a2,0(t0)
800008a2:	100122b7          	lui	t0,0x10012
800008a6:	01828293          	addi	t0,t0,24 # 10012018 <_start-0x6ffedfe8>
800008aa:	00b2a023          	sw	a1,0(t0)
800008ae:	0002a603          	lw	a2,0(t0)
800008b2:	100122b7          	lui	t0,0x10012
800008b6:	01c28293          	addi	t0,t0,28 # 1001201c <_start-0x6ffedfe4>
800008ba:	00b2a023          	sw	a1,0(t0)
800008be:	0002a603          	lw	a2,0(t0)
800008c2:	100122b7          	lui	t0,0x10012
800008c6:	02028293          	addi	t0,t0,32 # 10012020 <_start-0x6ffedfe0>
800008ca:	00b2a023          	sw	a1,0(t0)
800008ce:	0002a603          	lw	a2,0(t0)
800008d2:	100122b7          	lui	t0,0x10012
800008d6:	02428293          	addi	t0,t0,36 # 10012024 <_start-0x6ffedfdc>
800008da:	00b2a023          	sw	a1,0(t0)
800008de:	0002a603          	lw	a2,0(t0)
800008e2:	100122b7          	lui	t0,0x10012
800008e6:	02828293          	addi	t0,t0,40 # 10012028 <_start-0x6ffedfd8>
800008ea:	00b2a023          	sw	a1,0(t0)
800008ee:	0002a603          	lw	a2,0(t0)
800008f2:	100122b7          	lui	t0,0x10012
800008f6:	02c28293          	addi	t0,t0,44 # 1001202c <_start-0x6ffedfd4>
800008fa:	00b2a023          	sw	a1,0(t0)
800008fe:	0002a603          	lw	a2,0(t0)
80000902:	100122b7          	lui	t0,0x10012
80000906:	03028293          	addi	t0,t0,48 # 10012030 <_start-0x6ffedfd0>
8000090a:	00b2a023          	sw	a1,0(t0)
8000090e:	0002a603          	lw	a2,0(t0)
80000912:	100122b7          	lui	t0,0x10012
80000916:	03428293          	addi	t0,t0,52 # 10012034 <_start-0x6ffedfcc>
8000091a:	00b2a023          	sw	a1,0(t0)
8000091e:	0002a603          	lw	a2,0(t0)
80000922:	100122b7          	lui	t0,0x10012
80000926:	03828293          	addi	t0,t0,56 # 10012038 <_start-0x6ffedfc8>
8000092a:	00b2a023          	sw	a1,0(t0)
8000092e:	0002a603          	lw	a2,0(t0)
80000932:	100122b7          	lui	t0,0x10012
80000936:	03c28293          	addi	t0,t0,60 # 1001203c <_start-0x6ffedfc4>
8000093a:	00b2a023          	sw	a1,0(t0)
8000093e:	0002a603          	lw	a2,0(t0)
80000942:	100122b7          	lui	t0,0x10012
80000946:	04028293          	addi	t0,t0,64 # 10012040 <_start-0x6ffedfc0>
8000094a:	00b2a023          	sw	a1,0(t0)
8000094e:	0002a603          	lw	a2,0(t0)
80000952:	100132b7          	lui	t0,0x10013
80000956:	00b2a023          	sw	a1,0(t0) # 10013000 <_start-0x6ffed000>
8000095a:	0002a603          	lw	a2,0(t0)
8000095e:	100132b7          	lui	t0,0x10013
80000962:	00428293          	addi	t0,t0,4 # 10013004 <_start-0x6ffecffc>
80000966:	00b2a023          	sw	a1,0(t0)
8000096a:	0002a603          	lw	a2,0(t0)
8000096e:	100132b7          	lui	t0,0x10013
80000972:	00828293          	addi	t0,t0,8 # 10013008 <_start-0x6ffecff8>
80000976:	00b2a023          	sw	a1,0(t0)
8000097a:	0002a603          	lw	a2,0(t0)
8000097e:	100132b7          	lui	t0,0x10013
80000982:	00c28293          	addi	t0,t0,12 # 1001300c <_start-0x6ffecff4>
80000986:	00b2a023          	sw	a1,0(t0)
8000098a:	0002a603          	lw	a2,0(t0)
8000098e:	100132b7          	lui	t0,0x10013
80000992:	01028293          	addi	t0,t0,16 # 10013010 <_start-0x6ffecff0>
80000996:	00b2a023          	sw	a1,0(t0)
8000099a:	0002a603          	lw	a2,0(t0)
8000099e:	100132b7          	lui	t0,0x10013
800009a2:	01428293          	addi	t0,t0,20 # 10013014 <_start-0x6ffecfec>
800009a6:	00b2a023          	sw	a1,0(t0)
800009aa:	0002a603          	lw	a2,0(t0)
800009ae:	100132b7          	lui	t0,0x10013
800009b2:	01828293          	addi	t0,t0,24 # 10013018 <_start-0x6ffecfe8>
800009b6:	00b2a023          	sw	a1,0(t0)
800009ba:	0002a603          	lw	a2,0(t0)
800009be:	100142b7          	lui	t0,0x10014
800009c2:	00b2a023          	sw	a1,0(t0) # 10014000 <_start-0x6ffec000>
800009c6:	0002a603          	lw	a2,0(t0)
800009ca:	100142b7          	lui	t0,0x10014
800009ce:	00428293          	addi	t0,t0,4 # 10014004 <_start-0x6ffebffc>
800009d2:	00b2a023          	sw	a1,0(t0)
800009d6:	0002a603          	lw	a2,0(t0)
800009da:	100142b7          	lui	t0,0x10014
800009de:	01028293          	addi	t0,t0,16 # 10014010 <_start-0x6ffebff0>
800009e2:	00b2a023          	sw	a1,0(t0)
800009e6:	0002a603          	lw	a2,0(t0)
800009ea:	100142b7          	lui	t0,0x10014
800009ee:	01428293          	addi	t0,t0,20 # 10014014 <_start-0x6ffebfec>
800009f2:	00b2a023          	sw	a1,0(t0)
800009f6:	0002a603          	lw	a2,0(t0)
800009fa:	100142b7          	lui	t0,0x10014
800009fe:	01828293          	addi	t0,t0,24 # 10014018 <_start-0x6ffebfe8>
80000a02:	00b2a023          	sw	a1,0(t0)
80000a06:	0002a603          	lw	a2,0(t0)
80000a0a:	100142b7          	lui	t0,0x10014
80000a0e:	02828293          	addi	t0,t0,40 # 10014028 <_start-0x6ffebfd8>
80000a12:	00b2a023          	sw	a1,0(t0)
80000a16:	0002a603          	lw	a2,0(t0)
80000a1a:	100142b7          	lui	t0,0x10014
80000a1e:	02c28293          	addi	t0,t0,44 # 1001402c <_start-0x6ffebfd4>
80000a22:	00b2a023          	sw	a1,0(t0)
80000a26:	0002a603          	lw	a2,0(t0)
80000a2a:	100142b7          	lui	t0,0x10014
80000a2e:	04028293          	addi	t0,t0,64 # 10014040 <_start-0x6ffebfc0>
80000a32:	00b2a023          	sw	a1,0(t0)
80000a36:	0002a603          	lw	a2,0(t0)
80000a3a:	100142b7          	lui	t0,0x10014
80000a3e:	04828293          	addi	t0,t0,72 # 10014048 <_start-0x6ffebfb8>
80000a42:	00b2a023          	sw	a1,0(t0)
80000a46:	0002a603          	lw	a2,0(t0)
80000a4a:	100142b7          	lui	t0,0x10014
80000a4e:	04c28293          	addi	t0,t0,76 # 1001404c <_start-0x6ffebfb4>
80000a52:	00b2a023          	sw	a1,0(t0)
80000a56:	0002a603          	lw	a2,0(t0)
80000a5a:	100142b7          	lui	t0,0x10014
80000a5e:	05028293          	addi	t0,t0,80 # 10014050 <_start-0x6ffebfb0>
80000a62:	00b2a023          	sw	a1,0(t0)
80000a66:	0002a603          	lw	a2,0(t0)
80000a6a:	100142b7          	lui	t0,0x10014
80000a6e:	05428293          	addi	t0,t0,84 # 10014054 <_start-0x6ffebfac>
80000a72:	00b2a023          	sw	a1,0(t0)
80000a76:	0002a603          	lw	a2,0(t0)
80000a7a:	100142b7          	lui	t0,0x10014
80000a7e:	06028293          	addi	t0,t0,96 # 10014060 <_start-0x6ffebfa0>
80000a82:	00b2a023          	sw	a1,0(t0)
80000a86:	0002a603          	lw	a2,0(t0)
80000a8a:	100142b7          	lui	t0,0x10014
80000a8e:	06428293          	addi	t0,t0,100 # 10014064 <_start-0x6ffebf9c>
80000a92:	00b2a023          	sw	a1,0(t0)
80000a96:	0002a603          	lw	a2,0(t0)
80000a9a:	100142b7          	lui	t0,0x10014
80000a9e:	07028293          	addi	t0,t0,112 # 10014070 <_start-0x6ffebf90>
80000aa2:	00b2a023          	sw	a1,0(t0)
80000aa6:	0002a603          	lw	a2,0(t0)
80000aaa:	100142b7          	lui	t0,0x10014
80000aae:	07428293          	addi	t0,t0,116 # 10014074 <_start-0x6ffebf8c>
80000ab2:	00b2a023          	sw	a1,0(t0)
80000ab6:	0002a603          	lw	a2,0(t0)
80000aba:	100152b7          	lui	t0,0x10015
80000abe:	00b2a023          	sw	a1,0(t0) # 10015000 <_start-0x6ffeb000>
80000ac2:	0002a603          	lw	a2,0(t0)
80000ac6:	100152b7          	lui	t0,0x10015
80000aca:	00428293          	addi	t0,t0,4 # 10015004 <_start-0x6ffeaffc>
80000ace:	00b2a023          	sw	a1,0(t0)
80000ad2:	0002a603          	lw	a2,0(t0)
80000ad6:	100152b7          	lui	t0,0x10015
80000ada:	00828293          	addi	t0,t0,8 # 10015008 <_start-0x6ffeaff8>
80000ade:	00b2a023          	sw	a1,0(t0)
80000ae2:	0002a603          	lw	a2,0(t0)
80000ae6:	100152b7          	lui	t0,0x10015
80000aea:	00c28293          	addi	t0,t0,12 # 1001500c <_start-0x6ffeaff4>
80000aee:	00b2a023          	sw	a1,0(t0)
80000af2:	0002a603          	lw	a2,0(t0)
80000af6:	100152b7          	lui	t0,0x10015
80000afa:	01028293          	addi	t0,t0,16 # 10015010 <_start-0x6ffeaff0>
80000afe:	00b2a023          	sw	a1,0(t0)
80000b02:	0002a603          	lw	a2,0(t0)
80000b06:	100152b7          	lui	t0,0x10015
80000b0a:	01428293          	addi	t0,t0,20 # 10015014 <_start-0x6ffeafec>
80000b0e:	00b2a023          	sw	a1,0(t0)
80000b12:	0002a603          	lw	a2,0(t0)
80000b16:	100152b7          	lui	t0,0x10015
80000b1a:	01828293          	addi	t0,t0,24 # 10015018 <_start-0x6ffeafe8>
80000b1e:	00b2a023          	sw	a1,0(t0)
80000b22:	0002a603          	lw	a2,0(t0)
80000b26:	100152b7          	lui	t0,0x10015
80000b2a:	01c28293          	addi	t0,t0,28 # 1001501c <_start-0x6ffeafe4>
80000b2e:	00b2a023          	sw	a1,0(t0)
80000b32:	0002a603          	lw	a2,0(t0)
80000b36:	100152b7          	lui	t0,0x10015
80000b3a:	02028293          	addi	t0,t0,32 # 10015020 <_start-0x6ffeafe0>
80000b3e:	00b2a023          	sw	a1,0(t0)
80000b42:	0002a603          	lw	a2,0(t0)
80000b46:	100152b7          	lui	t0,0x10015
80000b4a:	02428293          	addi	t0,t0,36 # 10015024 <_start-0x6ffeafdc>
80000b4e:	00b2a023          	sw	a1,0(t0)
80000b52:	0002a603          	lw	a2,0(t0)
80000b56:	100152b7          	lui	t0,0x10015
80000b5a:	02828293          	addi	t0,t0,40 # 10015028 <_start-0x6ffeafd8>
80000b5e:	00b2a023          	sw	a1,0(t0)
80000b62:	0002a603          	lw	a2,0(t0)
80000b66:	100152b7          	lui	t0,0x10015
80000b6a:	02c28293          	addi	t0,t0,44 # 1001502c <_start-0x6ffeafd4>
80000b6e:	00b2a023          	sw	a1,0(t0)
80000b72:	0002a603          	lw	a2,0(t0)
80000b76:	100232b7          	lui	t0,0x10023
80000b7a:	00b2a023          	sw	a1,0(t0) # 10023000 <_start-0x6ffdd000>
80000b7e:	0002a603          	lw	a2,0(t0)
80000b82:	100232b7          	lui	t0,0x10023
80000b86:	00428293          	addi	t0,t0,4 # 10023004 <_start-0x6ffdcffc>
80000b8a:	00b2a023          	sw	a1,0(t0)
80000b8e:	0002a603          	lw	a2,0(t0)
80000b92:	100232b7          	lui	t0,0x10023
80000b96:	00828293          	addi	t0,t0,8 # 10023008 <_start-0x6ffdcff8>
80000b9a:	00b2a023          	sw	a1,0(t0)
80000b9e:	0002a603          	lw	a2,0(t0)
80000ba2:	100232b7          	lui	t0,0x10023
80000ba6:	00c28293          	addi	t0,t0,12 # 1002300c <_start-0x6ffdcff4>
80000baa:	00b2a023          	sw	a1,0(t0)
80000bae:	0002a603          	lw	a2,0(t0)
80000bb2:	100232b7          	lui	t0,0x10023
80000bb6:	01028293          	addi	t0,t0,16 # 10023010 <_start-0x6ffdcff0>
80000bba:	00b2a023          	sw	a1,0(t0)
80000bbe:	0002a603          	lw	a2,0(t0)
80000bc2:	100232b7          	lui	t0,0x10023
80000bc6:	01428293          	addi	t0,t0,20 # 10023014 <_start-0x6ffdcfec>
80000bca:	00b2a023          	sw	a1,0(t0)
80000bce:	0002a603          	lw	a2,0(t0)
80000bd2:	100232b7          	lui	t0,0x10023
80000bd6:	01828293          	addi	t0,t0,24 # 10023018 <_start-0x6ffdcfe8>
80000bda:	00b2a023          	sw	a1,0(t0)
80000bde:	0002a603          	lw	a2,0(t0)
80000be2:	100242b7          	lui	t0,0x10024
80000be6:	00b2a023          	sw	a1,0(t0) # 10024000 <_start-0x6ffdc000>
80000bea:	0002a603          	lw	a2,0(t0)
80000bee:	100242b7          	lui	t0,0x10024
80000bf2:	00428293          	addi	t0,t0,4 # 10024004 <_start-0x6ffdbffc>
80000bf6:	00b2a023          	sw	a1,0(t0)
80000bfa:	0002a603          	lw	a2,0(t0)
80000bfe:	100242b7          	lui	t0,0x10024
80000c02:	01028293          	addi	t0,t0,16 # 10024010 <_start-0x6ffdbff0>
80000c06:	00b2a023          	sw	a1,0(t0)
80000c0a:	0002a603          	lw	a2,0(t0)
80000c0e:	100242b7          	lui	t0,0x10024
80000c12:	01428293          	addi	t0,t0,20 # 10024014 <_start-0x6ffdbfec>
80000c16:	00b2a023          	sw	a1,0(t0)
80000c1a:	0002a603          	lw	a2,0(t0)
80000c1e:	100242b7          	lui	t0,0x10024
80000c22:	01828293          	addi	t0,t0,24 # 10024018 <_start-0x6ffdbfe8>
80000c26:	00b2a023          	sw	a1,0(t0)
80000c2a:	0002a603          	lw	a2,0(t0)
80000c2e:	100242b7          	lui	t0,0x10024
80000c32:	02828293          	addi	t0,t0,40 # 10024028 <_start-0x6ffdbfd8>
80000c36:	00b2a023          	sw	a1,0(t0)
80000c3a:	0002a603          	lw	a2,0(t0)
80000c3e:	100242b7          	lui	t0,0x10024
80000c42:	02c28293          	addi	t0,t0,44 # 1002402c <_start-0x6ffdbfd4>
80000c46:	00b2a023          	sw	a1,0(t0)
80000c4a:	0002a603          	lw	a2,0(t0)
80000c4e:	100242b7          	lui	t0,0x10024
80000c52:	04028293          	addi	t0,t0,64 # 10024040 <_start-0x6ffdbfc0>
80000c56:	00b2a023          	sw	a1,0(t0)
80000c5a:	0002a603          	lw	a2,0(t0)
80000c5e:	100242b7          	lui	t0,0x10024
80000c62:	04828293          	addi	t0,t0,72 # 10024048 <_start-0x6ffdbfb8>
80000c66:	00b2a023          	sw	a1,0(t0)
80000c6a:	0002a603          	lw	a2,0(t0)
80000c6e:	100242b7          	lui	t0,0x10024
80000c72:	04c28293          	addi	t0,t0,76 # 1002404c <_start-0x6ffdbfb4>
80000c76:	00b2a023          	sw	a1,0(t0)
80000c7a:	0002a603          	lw	a2,0(t0)
80000c7e:	100242b7          	lui	t0,0x10024
80000c82:	05028293          	addi	t0,t0,80 # 10024050 <_start-0x6ffdbfb0>
80000c86:	00b2a023          	sw	a1,0(t0)
80000c8a:	0002a603          	lw	a2,0(t0)
80000c8e:	100242b7          	lui	t0,0x10024
80000c92:	05428293          	addi	t0,t0,84 # 10024054 <_start-0x6ffdbfac>
80000c96:	00b2a023          	sw	a1,0(t0)
80000c9a:	0002a603          	lw	a2,0(t0)
80000c9e:	100242b7          	lui	t0,0x10024
80000ca2:	06028293          	addi	t0,t0,96 # 10024060 <_start-0x6ffdbfa0>
80000ca6:	00b2a023          	sw	a1,0(t0)
80000caa:	0002a603          	lw	a2,0(t0)
80000cae:	100242b7          	lui	t0,0x10024
80000cb2:	06428293          	addi	t0,t0,100 # 10024064 <_start-0x6ffdbf9c>
80000cb6:	00b2a023          	sw	a1,0(t0)
80000cba:	0002a603          	lw	a2,0(t0)
80000cbe:	100242b7          	lui	t0,0x10024
80000cc2:	07028293          	addi	t0,t0,112 # 10024070 <_start-0x6ffdbf90>
80000cc6:	00b2a023          	sw	a1,0(t0)
80000cca:	0002a603          	lw	a2,0(t0)
80000cce:	100242b7          	lui	t0,0x10024
80000cd2:	07428293          	addi	t0,t0,116 # 10024074 <_start-0x6ffdbf8c>
80000cd6:	00b2a023          	sw	a1,0(t0)
80000cda:	0002a603          	lw	a2,0(t0)
80000cde:	100252b7          	lui	t0,0x10025
80000ce2:	00b2a023          	sw	a1,0(t0) # 10025000 <_start-0x6ffdb000>
80000ce6:	0002a603          	lw	a2,0(t0)
80000cea:	100252b7          	lui	t0,0x10025
80000cee:	00428293          	addi	t0,t0,4 # 10025004 <_start-0x6ffdaffc>
80000cf2:	00b2a023          	sw	a1,0(t0)
80000cf6:	0002a603          	lw	a2,0(t0)
80000cfa:	100252b7          	lui	t0,0x10025
80000cfe:	00828293          	addi	t0,t0,8 # 10025008 <_start-0x6ffdaff8>
80000d02:	00b2a023          	sw	a1,0(t0)
80000d06:	0002a603          	lw	a2,0(t0)
80000d0a:	100252b7          	lui	t0,0x10025
80000d0e:	00c28293          	addi	t0,t0,12 # 1002500c <_start-0x6ffdaff4>
80000d12:	00b2a023          	sw	a1,0(t0)
80000d16:	0002a603          	lw	a2,0(t0)
80000d1a:	100252b7          	lui	t0,0x10025
80000d1e:	01028293          	addi	t0,t0,16 # 10025010 <_start-0x6ffdaff0>
80000d22:	00b2a023          	sw	a1,0(t0)
80000d26:	0002a603          	lw	a2,0(t0)
80000d2a:	100252b7          	lui	t0,0x10025
80000d2e:	01428293          	addi	t0,t0,20 # 10025014 <_start-0x6ffdafec>
80000d32:	00b2a023          	sw	a1,0(t0)
80000d36:	0002a603          	lw	a2,0(t0)
80000d3a:	100252b7          	lui	t0,0x10025
80000d3e:	01828293          	addi	t0,t0,24 # 10025018 <_start-0x6ffdafe8>
80000d42:	00b2a023          	sw	a1,0(t0)
80000d46:	0002a603          	lw	a2,0(t0)
80000d4a:	100252b7          	lui	t0,0x10025
80000d4e:	01c28293          	addi	t0,t0,28 # 1002501c <_start-0x6ffdafe4>
80000d52:	00b2a023          	sw	a1,0(t0)
80000d56:	0002a603          	lw	a2,0(t0)
80000d5a:	100252b7          	lui	t0,0x10025
80000d5e:	02028293          	addi	t0,t0,32 # 10025020 <_start-0x6ffdafe0>
80000d62:	00b2a023          	sw	a1,0(t0)
80000d66:	0002a603          	lw	a2,0(t0)
80000d6a:	100252b7          	lui	t0,0x10025
80000d6e:	02428293          	addi	t0,t0,36 # 10025024 <_start-0x6ffdafdc>
80000d72:	00b2a023          	sw	a1,0(t0)
80000d76:	0002a603          	lw	a2,0(t0)
80000d7a:	100252b7          	lui	t0,0x10025
80000d7e:	02828293          	addi	t0,t0,40 # 10025028 <_start-0x6ffdafd8>
80000d82:	00b2a023          	sw	a1,0(t0)
80000d86:	0002a603          	lw	a2,0(t0)
80000d8a:	100252b7          	lui	t0,0x10025
80000d8e:	02c28293          	addi	t0,t0,44 # 1002502c <_start-0x6ffdafd4>
80000d92:	00b2a023          	sw	a1,0(t0)
80000d96:	0002a603          	lw	a2,0(t0)
80000d9a:	100342b7          	lui	t0,0x10034
80000d9e:	00b2a023          	sw	a1,0(t0) # 10034000 <_start-0x6ffcc000>
80000da2:	0002a603          	lw	a2,0(t0)
80000da6:	100342b7          	lui	t0,0x10034
80000daa:	00428293          	addi	t0,t0,4 # 10034004 <_start-0x6ffcbffc>
80000dae:	00b2a023          	sw	a1,0(t0)
80000db2:	0002a603          	lw	a2,0(t0)
80000db6:	100342b7          	lui	t0,0x10034
80000dba:	01028293          	addi	t0,t0,16 # 10034010 <_start-0x6ffcbff0>
80000dbe:	00b2a023          	sw	a1,0(t0)
80000dc2:	0002a603          	lw	a2,0(t0)
80000dc6:	100342b7          	lui	t0,0x10034
80000dca:	01428293          	addi	t0,t0,20 # 10034014 <_start-0x6ffcbfec>
80000dce:	00b2a023          	sw	a1,0(t0)
80000dd2:	0002a603          	lw	a2,0(t0)
80000dd6:	100342b7          	lui	t0,0x10034
80000dda:	01828293          	addi	t0,t0,24 # 10034018 <_start-0x6ffcbfe8>
80000dde:	00b2a023          	sw	a1,0(t0)
80000de2:	0002a603          	lw	a2,0(t0)
80000de6:	100342b7          	lui	t0,0x10034
80000dea:	02828293          	addi	t0,t0,40 # 10034028 <_start-0x6ffcbfd8>
80000dee:	00b2a023          	sw	a1,0(t0)
80000df2:	0002a603          	lw	a2,0(t0)
80000df6:	100342b7          	lui	t0,0x10034
80000dfa:	02c28293          	addi	t0,t0,44 # 1003402c <_start-0x6ffcbfd4>
80000dfe:	00b2a023          	sw	a1,0(t0)
80000e02:	0002a603          	lw	a2,0(t0)
80000e06:	100342b7          	lui	t0,0x10034
80000e0a:	04028293          	addi	t0,t0,64 # 10034040 <_start-0x6ffcbfc0>
80000e0e:	00b2a023          	sw	a1,0(t0)
80000e12:	0002a603          	lw	a2,0(t0)
80000e16:	100342b7          	lui	t0,0x10034
80000e1a:	04828293          	addi	t0,t0,72 # 10034048 <_start-0x6ffcbfb8>
80000e1e:	00b2a023          	sw	a1,0(t0)
80000e22:	0002a603          	lw	a2,0(t0)
80000e26:	100342b7          	lui	t0,0x10034
80000e2a:	04c28293          	addi	t0,t0,76 # 1003404c <_start-0x6ffcbfb4>
80000e2e:	00b2a023          	sw	a1,0(t0)
80000e32:	0002a603          	lw	a2,0(t0)
80000e36:	100342b7          	lui	t0,0x10034
80000e3a:	05028293          	addi	t0,t0,80 # 10034050 <_start-0x6ffcbfb0>
80000e3e:	00b2a023          	sw	a1,0(t0)
80000e42:	0002a603          	lw	a2,0(t0)
80000e46:	100342b7          	lui	t0,0x10034
80000e4a:	05428293          	addi	t0,t0,84 # 10034054 <_start-0x6ffcbfac>
80000e4e:	00b2a023          	sw	a1,0(t0)
80000e52:	0002a603          	lw	a2,0(t0)
80000e56:	100342b7          	lui	t0,0x10034
80000e5a:	06028293          	addi	t0,t0,96 # 10034060 <_start-0x6ffcbfa0>
80000e5e:	00b2a023          	sw	a1,0(t0)
80000e62:	0002a603          	lw	a2,0(t0)
80000e66:	100342b7          	lui	t0,0x10034
80000e6a:	06428293          	addi	t0,t0,100 # 10034064 <_start-0x6ffcbf9c>
80000e6e:	00b2a023          	sw	a1,0(t0)
80000e72:	0002a603          	lw	a2,0(t0)
80000e76:	100342b7          	lui	t0,0x10034
80000e7a:	07028293          	addi	t0,t0,112 # 10034070 <_start-0x6ffcbf90>
80000e7e:	00b2a023          	sw	a1,0(t0)
80000e82:	0002a603          	lw	a2,0(t0)
80000e86:	100342b7          	lui	t0,0x10034
80000e8a:	07428293          	addi	t0,t0,116 # 10034074 <_start-0x6ffcbf8c>
80000e8e:	00b2a023          	sw	a1,0(t0)
80000e92:	0002a603          	lw	a2,0(t0)
80000e96:	100352b7          	lui	t0,0x10035
80000e9a:	00b2a023          	sw	a1,0(t0) # 10035000 <_start-0x6ffcb000>
80000e9e:	0002a603          	lw	a2,0(t0)
80000ea2:	100352b7          	lui	t0,0x10035
80000ea6:	00428293          	addi	t0,t0,4 # 10035004 <_start-0x6ffcaffc>
80000eaa:	00b2a023          	sw	a1,0(t0)
80000eae:	0002a603          	lw	a2,0(t0)
80000eb2:	100352b7          	lui	t0,0x10035
80000eb6:	00828293          	addi	t0,t0,8 # 10035008 <_start-0x6ffcaff8>
80000eba:	00b2a023          	sw	a1,0(t0)
80000ebe:	0002a603          	lw	a2,0(t0)
80000ec2:	100352b7          	lui	t0,0x10035
80000ec6:	00c28293          	addi	t0,t0,12 # 1003500c <_start-0x6ffcaff4>
80000eca:	00b2a023          	sw	a1,0(t0)
80000ece:	0002a603          	lw	a2,0(t0)
80000ed2:	100352b7          	lui	t0,0x10035
80000ed6:	01028293          	addi	t0,t0,16 # 10035010 <_start-0x6ffcaff0>
80000eda:	00b2a023          	sw	a1,0(t0)
80000ede:	0002a603          	lw	a2,0(t0)
80000ee2:	100352b7          	lui	t0,0x10035
80000ee6:	01428293          	addi	t0,t0,20 # 10035014 <_start-0x6ffcafec>
80000eea:	00b2a023          	sw	a1,0(t0)
80000eee:	0002a603          	lw	a2,0(t0)
80000ef2:	100352b7          	lui	t0,0x10035
80000ef6:	01828293          	addi	t0,t0,24 # 10035018 <_start-0x6ffcafe8>
80000efa:	00b2a023          	sw	a1,0(t0)
80000efe:	0002a603          	lw	a2,0(t0)
80000f02:	100352b7          	lui	t0,0x10035
80000f06:	01c28293          	addi	t0,t0,28 # 1003501c <_start-0x6ffcafe4>
80000f0a:	00b2a023          	sw	a1,0(t0)
80000f0e:	0002a603          	lw	a2,0(t0)
80000f12:	100352b7          	lui	t0,0x10035
80000f16:	02028293          	addi	t0,t0,32 # 10035020 <_start-0x6ffcafe0>
80000f1a:	00b2a023          	sw	a1,0(t0)
80000f1e:	0002a603          	lw	a2,0(t0)
80000f22:	100352b7          	lui	t0,0x10035
80000f26:	02428293          	addi	t0,t0,36 # 10035024 <_start-0x6ffcafdc>
80000f2a:	00b2a023          	sw	a1,0(t0)
80000f2e:	0002a603          	lw	a2,0(t0)
80000f32:	100352b7          	lui	t0,0x10035
80000f36:	02828293          	addi	t0,t0,40 # 10035028 <_start-0x6ffcafd8>
80000f3a:	00b2a023          	sw	a1,0(t0)
80000f3e:	0002a603          	lw	a2,0(t0)
80000f42:	100352b7          	lui	t0,0x10035
80000f46:	02c28293          	addi	t0,t0,44 # 1003502c <_start-0x6ffcafd4>
80000f4a:	00b2a023          	sw	a1,0(t0)
80000f4e:	0002a603          	lw	a2,0(t0)
80000f52:	4185                	li	gp,1
80000f54:	00301b63          	bne	zero,gp,80000f6a <pass>

80000f58 <fail>:
80000f58:	0ff0000f          	fence
80000f5c:	00018063          	beqz	gp,80000f5c <fail+0x4>
80000f60:	0186                	slli	gp,gp,0x1
80000f62:	0011e193          	ori	gp,gp,1
80000f66:	00000073          	ecall

80000f6a <pass>:
80000f6a:	0ff0000f          	fence
80000f6e:	4185                	li	gp,1
80000f70:	00000073          	ecall
	...

Disassembly of section .tohost:

80001000 <tohost>:
	...

80001040 <fromhost>:
	...

Disassembly of section .data:

80002000 <test_trap_data>:
	...

80002010 <begin_signature>:
80002010:	0000                	unimp
	...

80002014 <data2>:
	...
